{
  "contractName": "drugValidation",
  "abi": [
    {
      "inputs": [],
      "name": "getListOfMessages",
      "outputs": [
        {
          "components": [
            {
              "internalType": "string",
              "name": "msg",
              "type": "string"
            },
            {
              "internalType": "address",
              "name": "myAccountAddress",
              "type": "address"
            },
            {
              "internalType": "address",
              "name": "friendAccountAddress",
              "type": "address"
            },
            {
              "internalType": "uint256",
              "name": "dateTime",
              "type": "uint256"
            }
          ],
          "internalType": "struct drugValidation.msgData[]",
          "name": "",
          "type": "tuple[]"
        }
      ],
      "stateMutability": "view",
      "type": "function",
      "constant": true
    },
    {
      "inputs": [
        {
          "internalType": "string",
          "name": "myMsg",
          "type": "string"
        },
        {
          "internalType": "address",
          "name": "friendAccountAddress",
          "type": "address"
        }
      ],
      "name": "setMsg",
      "outputs": [],
      "stateMutability": "nonpayable",
      "type": "function"
    },
    {
      "inputs": [
        {
          "internalType": "string",
          "name": "Name",
          "type": "string"
        },
        {
          "internalType": "address",
          "name": "accountAddress",
          "type": "address"
        }
      ],
      "name": "registerAccount",
      "outputs": [],
      "stateMutability": "nonpayable",
      "type": "function"
    },
    {
      "inputs": [],
      "name": "getAllUsers",
      "outputs": [
        {
          "components": [
            {
              "internalType": "string",
              "name": "name",
              "type": "string"
            },
            {
              "internalType": "address",
              "name": "myAccountAddress",
              "type": "address"
            }
          ],
          "internalType": "struct drugValidation.Users[]",
          "name": "",
          "type": "tuple[]"
        }
      ],
      "stateMutability": "view",
      "type": "function",
      "constant": true
    }
  ],
  "bytecode": "0x608060405234801561001057600080fd5b50610bcc806100206000396000f3fe608060405234801561001057600080fd5b506004361061004c5760003560e01c8063768e8ac61461005157806395ad15431461006f578063e0a717101461008b578063e2842d79146100a7575b600080fd5b6100596100c5565b60405161006691906109e7565b60405180910390f35b61008960048036038101906100849190610768565b61027c565b005b6100a560048036038101906100a09190610768565b610348565b005b6100af610487565b6040516100bc91906109c5565b60405180910390f35b60606000805480602002602001604051908101604052809291908181526020016000905b828210156102735783829060005260206000209060040201604051806080016040529081600082018054600181600116156101000203166002900480601f0160208091040260200160405190810160405280929190818152602001828054600181600116156101000203166002900480156101a55780601f1061017a576101008083540402835291602001916101a5565b820191906000526020600020905b81548152906001019060200180831161018857829003601f168201915b505050505081526020016001820160009054906101000a900473ffffffffffffffffffffffffffffffffffffffff1673ffffffffffffffffffffffffffffffffffffffff1673ffffffffffffffffffffffffffffffffffffffff1681526020016002820160009054906101000a900473ffffffffffffffffffffffffffffffffffffffff1673ffffffffffffffffffffffffffffffffffffffff1673ffffffffffffffffffffffffffffffffffffffff168152602001600382015481525050815260200190600101906100e9565b50505050905090565b6102846105de565b60405180604001604052808481526020018373ffffffffffffffffffffffffffffffffffffffff168152509050600181908060018154018082558091505060019003906000526020600020906002020160009091909190915060008201518160000190805190602001906102f992919061060e565b5060208201518160010160006101000a81548173ffffffffffffffffffffffffffffffffffffffff021916908373ffffffffffffffffffffffffffffffffffffffff1602179055505050505050565b61035061068e565b60405180608001604052808481526020013373ffffffffffffffffffffffffffffffffffffffff1681526020018373ffffffffffffffffffffffffffffffffffffffff168152602001428152509050600081908060018154018082558091505060019003906000526020600020906004020160009091909190915060008201518160000190805190602001906103e792919061060e565b5060208201518160010160006101000a81548173ffffffffffffffffffffffffffffffffffffffff021916908373ffffffffffffffffffffffffffffffffffffffff16021790555060408201518160020160006101000a81548173ffffffffffffffffffffffffffffffffffffffff021916908373ffffffffffffffffffffffffffffffffffffffff160217905550606082015181600301555050505050565b60606001805480602002602001604051908101604052809291908181526020016000905b828210156105d55783829060005260206000209060020201604051806040016040529081600082018054600181600116156101000203166002900480601f0160208091040260200160405190810160405280929190818152602001828054600181600116156101000203166002900480156105675780601f1061053c57610100808354040283529160200191610567565b820191906000526020600020905b81548152906001019060200180831161054a57829003601f168201915b505050505081526020016001820160009054906101000a900473ffffffffffffffffffffffffffffffffffffffff1673ffffffffffffffffffffffffffffffffffffffff1673ffffffffffffffffffffffffffffffffffffffff1681525050815260200190600101906104ab565b50505050905090565b604051806040016040528060608152602001600073ffffffffffffffffffffffffffffffffffffffff1681525090565b828054600181600116156101000203166002900490600052602060002090601f016020900481019282601f1061064f57805160ff191683800117855561067d565b8280016001018555821561067d579182015b8281111561067c578251825591602001919060010190610661565b5b50905061068a91906106e2565b5090565b604051806080016040528060608152602001600073ffffffffffffffffffffffffffffffffffffffff168152602001600073ffffffffffffffffffffffffffffffffffffffff168152602001600081525090565b5b808211156106fb5760008160009055506001016106e3565b5090565b60008135905061070e81610b7f565b92915050565b600082601f83011261072557600080fd5b813561073861073382610a36565b610a09565b9150808252602083016020830185838301111561075457600080fd5b61075f838284610b2c565b50505092915050565b6000806040838503121561077b57600080fd5b600083013567ffffffffffffffff81111561079557600080fd5b6107a185828601610714565b92505060206107b2858286016106ff565b9150509250929050565b60006107c88383610916565b905092915050565b60006107dc8383610953565b905092915050565b6107ed81610af0565b82525050565b60006107fe82610a82565b6108088185610abd565b93508360208202850161081a85610a62565b8060005b85811015610856578484038952815161083785826107bc565b945061084283610aa3565b925060208a0199505060018101905061081e565b50829750879550505050505092915050565b600061087382610a8d565b61087d8185610ace565b93508360208202850161088f85610a72565b8060005b858110156108cb57848403895281516108ac85826107d0565b94506108b783610ab0565b925060208a01995050600181019050610893565b50829750879550505050505092915050565b60006108e882610a98565b6108f28185610adf565b9350610902818560208601610b3b565b61090b81610b6e565b840191505092915050565b6000604083016000830151848203600086015261093382826108dd565b915050602083015161094860208601826107e4565b508091505092915050565b6000608083016000830151848203600086015261097082826108dd565b915050602083015161098560208601826107e4565b50604083015161099860408601826107e4565b5060608301516109ab60608601826109b6565b508091505092915050565b6109bf81610b22565b82525050565b600060208201905081810360008301526109df81846107f3565b905092915050565b60006020820190508181036000830152610a018184610868565b905092915050565b6000604051905081810181811067ffffffffffffffff82111715610a2c57600080fd5b8060405250919050565b600067ffffffffffffffff821115610a4d57600080fd5b601f19601f8301169050602081019050919050565b6000819050602082019050919050565b6000819050602082019050919050565b600081519050919050565b600081519050919050565b600081519050919050565b6000602082019050919050565b6000602082019050919050565b600082825260208201905092915050565b600082825260208201905092915050565b600082825260208201905092915050565b6000610afb82610b02565b9050919050565b600073ffffffffffffffffffffffffffffffffffffffff82169050919050565b6000819050919050565b82818337600083830152505050565b60005b83811015610b59578082015181840152602081019050610b3e565b83811115610b68576000848401525b50505050565b6000601f19601f8301169050919050565b610b8881610af0565b8114610b9357600080fd5b5056fea2646970667358221220277faed5f36656bf6fdc8e226256c331b1b9b2d008dc87eb3fb21b9ac699bc8064736f6c634300060c0033",
  "immutableReferences": {},
  "source": "// // SPDX-License-Identifier: MIT\r\n// pragma solidity 0.6.12;\r\n// \r\n// contract ContractName {\r\n// \r\n// \tconstructor() public {\r\n// \r\n// \t}\r\n// \r\n//   // Fallback: reverts if Ether is sent to this smart contract by mistake\r\n//   fallback() external payable {\r\n//   }\r\n// }\r\n\r\n\r\n\r\n\r\n// SPDX-License-Identifier: GPL-3.0\r\n\r\npragma experimental ABIEncoderV2;\r\n\r\npragma solidity >=0.4.0 <0.8.2;\r\n\r\ncontract drugValidation{\r\n\r\n    struct msgData{\r\n        string msg;\r\n        address myAccountAddress;\r\n        address friendAccountAddress;\r\n        uint256 dateTime;\r\n    }\r\n    \r\n    struct Users{\r\n        string name;\r\n        address myAccountAddress;\r\n    }\r\n    \r\n    msgData[] listMsg;\r\n    Users[] listOfUsers;\r\n    \r\n    function getListOfMessages() public view returns(msgData[] memory){\r\n        return listMsg;    \r\n    }\r\n    \r\n    function setMsg(string memory myMsg, address friendAccountAddress) public {\r\n        msgData memory message = msgData(myMsg, msg.sender, friendAccountAddress, block.timestamp);\r\n        listMsg.push(message);\r\n    }\r\n    \r\n    function registerAccount(string memory Name, address accountAddress) public {\r\n        Users memory user = Users(Name, accountAddress);\r\n        listOfUsers.push(user);\r\n    }\r\n    \r\n    function getAllUsers() public view returns(Users[] memory){\r\n        return listOfUsers;\r\n    } \r\n\r\n}\r\n\r\n\r\n\r\n",
  "sourcePath": "F:/FYP 2021 Group/dapp_template_v1/src/contracts/drugValidation.sol",
  "compiler": {
    "name": "solc",
    "version": "0.6.12+commit.27d51765.Emscripten.clang"
  },
  "schemaVersion": "3.4.0",
  "updatedAt": "2021-04-29T21:23:03.300Z",
  "networkType": "ethereum",
  "devdoc": {
    "kind": "dev",
    "methods": {},
    "version": 1
  },
  "userdoc": {
    "kind": "user",
    "methods": {},
    "version": 1
  }
}